{
  "contractName": "Work",
  "abi": [
    {
      "inputs": [],
      "payable": false,
      "stateMutability": "nonpayable",
      "type": "constructor"
    },
    {
      "anonymous": false,
      "inputs": [
        {
          "indexed": true,
          "internalType": "address",
          "name": "owner",
          "type": "address"
        },
        {
          "indexed": true,
          "internalType": "address",
          "name": "spender",
          "type": "address"
        },
        {
          "indexed": false,
          "internalType": "uint256",
          "name": "tokens",
          "type": "uint256"
        }
      ],
      "name": "Approval",
      "type": "event"
    },
    {
      "anonymous": false,
      "inputs": [
        {
          "indexed": false,
          "internalType": "uint256",
          "name": "tokens",
          "type": "uint256"
        }
      ],
      "name": "Burn",
      "type": "event"
    },
    {
      "anonymous": false,
      "inputs": [
        {
          "indexed": true,
          "internalType": "address",
          "name": "owner",
          "type": "address"
        },
        {
          "indexed": false,
          "internalType": "uint256",
          "name": "tokens",
          "type": "uint256"
        }
      ],
      "name": "Collect",
      "type": "event"
    },
    {
      "anonymous": false,
      "inputs": [
        {
          "indexed": true,
          "internalType": "address",
          "name": "owner",
          "type": "address"
        },
        {
          "indexed": false,
          "internalType": "uint256",
          "name": "tokens",
          "type": "uint256"
        }
      ],
      "name": "Freeze",
      "type": "event"
    },
    {
      "anonymous": false,
      "inputs": [
        {
          "indexed": true,
          "internalType": "address",
          "name": "from",
          "type": "address"
        },
        {
          "indexed": true,
          "internalType": "address",
          "name": "to",
          "type": "address"
        },
        {
          "indexed": false,
          "internalType": "uint256",
          "name": "tokens",
          "type": "uint256"
        }
      ],
      "name": "Transfer",
      "type": "event"
    },
    {
      "anonymous": false,
      "inputs": [
        {
          "indexed": true,
          "internalType": "address",
          "name": "owner",
          "type": "address"
        },
        {
          "indexed": false,
          "internalType": "uint256",
          "name": "tokens",
          "type": "uint256"
        }
      ],
      "name": "Unfreeze",
      "type": "event"
    },
    {
      "anonymous": false,
      "inputs": [
        {
          "indexed": true,
          "internalType": "address",
          "name": "user",
          "type": "address"
        },
        {
          "indexed": false,
          "internalType": "bool",
          "name": "status",
          "type": "bool"
        }
      ],
      "name": "Whitelist",
      "type": "event"
    },
    {
      "constant": true,
      "inputs": [],
      "name": "decimals",
      "outputs": [
        {
          "internalType": "uint8",
          "name": "",
          "type": "uint8"
        }
      ],
      "payable": false,
      "stateMutability": "view",
      "type": "function"
    },
    {
      "constant": true,
      "inputs": [],
      "name": "name",
      "outputs": [
        {
          "internalType": "string",
          "name": "",
          "type": "string"
        }
      ],
      "payable": false,
      "stateMutability": "view",
      "type": "function"
    },
    {
      "constant": true,
      "inputs": [],
      "name": "symbol",
      "outputs": [
        {
          "internalType": "string",
          "name": "",
          "type": "string"
        }
      ],
      "payable": false,
      "stateMutability": "view",
      "type": "function"
    },
    {
      "constant": false,
      "inputs": [
        {
          "internalType": "uint256",
          "name": "_tokens",
          "type": "uint256"
        }
      ],
      "name": "freeze",
      "outputs": [],
      "payable": false,
      "stateMutability": "nonpayable",
      "type": "function"
    },
    {
      "constant": false,
      "inputs": [
        {
          "internalType": "uint256",
          "name": "_tokens",
          "type": "uint256"
        }
      ],
      "name": "unfreeze",
      "outputs": [],
      "payable": false,
      "stateMutability": "nonpayable",
      "type": "function"
    },
    {
      "constant": false,
      "inputs": [],
      "name": "collect",
      "outputs": [
        {
          "internalType": "uint256",
          "name": "",
          "type": "uint256"
        }
      ],
      "payable": false,
      "stateMutability": "nonpayable",
      "type": "function"
    },
    {
      "constant": false,
      "inputs": [
        {
          "internalType": "uint256",
          "name": "_tokens",
          "type": "uint256"
        }
      ],
      "name": "burn",
      "outputs": [],
      "payable": false,
      "stateMutability": "nonpayable",
      "type": "function"
    },
    {
      "constant": false,
      "inputs": [
        {
          "internalType": "uint256",
          "name": "_tokens",
          "type": "uint256"
        }
      ],
      "name": "distribute",
      "outputs": [],
      "payable": false,
      "stateMutability": "nonpayable",
      "type": "function"
    },
    {
      "constant": false,
      "inputs": [
        {
          "internalType": "address",
          "name": "_to",
          "type": "address"
        },
        {
          "internalType": "uint256",
          "name": "_tokens",
          "type": "uint256"
        }
      ],
      "name": "transfer",
      "outputs": [
        {
          "internalType": "bool",
          "name": "",
          "type": "bool"
        }
      ],
      "payable": false,
      "stateMutability": "nonpayable",
      "type": "function"
    },
    {
      "constant": false,
      "inputs": [
        {
          "internalType": "address",
          "name": "_spender",
          "type": "address"
        },
        {
          "internalType": "uint256",
          "name": "_tokens",
          "type": "uint256"
        }
      ],
      "name": "approve",
      "outputs": [
        {
          "internalType": "bool",
          "name": "",
          "type": "bool"
        }
      ],
      "payable": false,
      "stateMutability": "nonpayable",
      "type": "function"
    },
    {
      "constant": false,
      "inputs": [
        {
          "internalType": "address",
          "name": "_from",
          "type": "address"
        },
        {
          "internalType": "address",
          "name": "_to",
          "type": "address"
        },
        {
          "internalType": "uint256",
          "name": "_tokens",
          "type": "uint256"
        }
      ],
      "name": "transferFrom",
      "outputs": [
        {
          "internalType": "bool",
          "name": "",
          "type": "bool"
        }
      ],
      "payable": false,
      "stateMutability": "nonpayable",
      "type": "function"
    },
    {
      "constant": false,
      "inputs": [
        {
          "internalType": "address",
          "name": "_to",
          "type": "address"
        },
        {
          "internalType": "uint256",
          "name": "_tokens",
          "type": "uint256"
        },
        {
          "internalType": "bytes",
          "name": "_data",
          "type": "bytes"
        }
      ],
      "name": "transferAndCall",
      "outputs": [
        {
          "internalType": "bool",
          "name": "",
          "type": "bool"
        }
      ],
      "payable": false,
      "stateMutability": "nonpayable",
      "type": "function"
    },
    {
      "constant": false,
      "inputs": [
        {
          "internalType": "address[]",
          "name": "_receivers",
          "type": "address[]"
        },
        {
          "internalType": "uint256[]",
          "name": "_amounts",
          "type": "uint256[]"
        }
      ],
      "name": "bulkTransfer",
      "outputs": [],
      "payable": false,
      "stateMutability": "nonpayable",
      "type": "function"
    },
    {
      "constant": false,
      "inputs": [
        {
          "internalType": "address",
          "name": "_user",
          "type": "address"
        },
        {
          "internalType": "bool",
          "name": "_status",
          "type": "bool"
        }
      ],
      "name": "whitelist",
      "outputs": [],
      "payable": false,
      "stateMutability": "nonpayable",
      "type": "function"
    },
    {
      "constant": true,
      "inputs": [],
      "name": "totalSupply",
      "outputs": [
        {
          "internalType": "uint256",
          "name": "",
          "type": "uint256"
        }
      ],
      "payable": false,
      "stateMutability": "view",
      "type": "function"
    },
    {
      "constant": true,
      "inputs": [],
      "name": "totalFrozen",
      "outputs": [
        {
          "internalType": "uint256",
          "name": "",
          "type": "uint256"
        }
      ],
      "payable": false,
      "stateMutability": "view",
      "type": "function"
    },
    {
      "constant": true,
      "inputs": [
        {
          "internalType": "address",
          "name": "_user",
          "type": "address"
        }
      ],
      "name": "balanceOf",
      "outputs": [
        {
          "internalType": "uint256",
          "name": "",
          "type": "uint256"
        }
      ],
      "payable": false,
      "stateMutability": "view",
      "type": "function"
    },
    {
      "constant": true,
      "inputs": [
        {
          "internalType": "address",
          "name": "_user",
          "type": "address"
        }
      ],
      "name": "frozenOf",
      "outputs": [
        {
          "internalType": "uint256",
          "name": "",
          "type": "uint256"
        }
      ],
      "payable": false,
      "stateMutability": "view",
      "type": "function"
    },
    {
      "constant": true,
      "inputs": [
        {
          "internalType": "address",
          "name": "_user",
          "type": "address"
        }
      ],
      "name": "dividendsOf",
      "outputs": [
        {
          "internalType": "uint256",
          "name": "",
          "type": "uint256"
        }
      ],
      "payable": false,
      "stateMutability": "view",
      "type": "function"
    },
    {
      "constant": true,
      "inputs": [
        {
          "internalType": "address",
          "name": "_user",
          "type": "address"
        },
        {
          "internalType": "address",
          "name": "_spender",
          "type": "address"
        }
      ],
      "name": "allowance",
      "outputs": [
        {
          "internalType": "uint256",
          "name": "",
          "type": "uint256"
        }
      ],
      "payable": false,
      "stateMutability": "view",
      "type": "function"
    },
    {
      "constant": true,
      "inputs": [
        {
          "internalType": "address",
          "name": "_user",
          "type": "address"
        }
      ],
      "name": "isWhitelisted",
      "outputs": [
        {
          "internalType": "bool",
          "name": "",
          "type": "bool"
        }
      ],
      "payable": false,
      "stateMutability": "view",
      "type": "function"
    },
    {
      "constant": true,
      "inputs": [
        {
          "internalType": "address",
          "name": "_user",
          "type": "address"
        }
      ],
      "name": "allInfoFor",
      "outputs": [
        {
          "internalType": "uint256",
          "name": "totalTokenSupply",
          "type": "uint256"
        },
        {
          "internalType": "uint256",
          "name": "totalTokensFrozen",
          "type": "uint256"
        },
        {
          "internalType": "uint256",
          "name": "userBalance",
          "type": "uint256"
        },
        {
          "internalType": "uint256",
          "name": "userFrozen",
          "type": "uint256"
        },
        {
          "internalType": "uint256",
          "name": "userDividends",
          "type": "uint256"
        }
      ],
      "payable": false,
      "stateMutability": "view",
      "type": "function"
    }
  ],
  "bytecode": "0x608060405234801561001057600080fd5b5033600060040160006101000a81548173ffffffffffffffffffffffffffffffffffffffff021916908373ffffffffffffffffffffffffffffffffffffffff1602179055506b019d971e4fe8401e7400000060008001819055506b019d971e4fe8401e74000000600060020160003373ffffffffffffffffffffffffffffffffffffffff1673ffffffffffffffffffffffffffffffffffffffff168152602001908152602001600020600101819055503373ffffffffffffffffffffffffffffffffffffffff16600073ffffffffffffffffffffffffffffffffffffffff167fddf252ad1be2c89b69c2b068fc378daa952ba7f163c4a11628f55a4df523b3ef6b019d971e4fe8401e740000006040518082815260200191505060405180910390a361014333600161014860201b60201c565b610258565b600060040160009054906101000a900473ffffffffffffffffffffffffffffffffffffffff1673ffffffffffffffffffffffffffffffffffffffff163373ffffffffffffffffffffffffffffffffffffffff16146101a557600080fd5b80600060020160008473ffffffffffffffffffffffffffffffffffffffff1673ffffffffffffffffffffffffffffffffffffffff16815260200190815260200160002060000160006101000a81548160ff0219169083151502179055508173ffffffffffffffffffffffffffffffffffffffff167f5a25e09a5dba33161281055e015f1279b6b10204d8f90dd56a8ce2b82322d43d82604051808215151515815260200191505060405180910390a25050565b611c79806102676000396000f3fe608060405234801561001057600080fd5b50600436106101415760003560e01c806342966c68116100b857806395d89b411161007c57806395d89b4114610700578063a9059cbb14610783578063d7a78db8146107e9578063dd62ed3e14610817578063e52253811461088f578063f59c3708146108ad57610141565b806342966c68146105aa57806357f6b812146105d85780636623fc461461064c57806370a082311461067a57806391c05b0b146106d257610141565b80631bf6e00d1161010a5780631bf6e00d146103735780631e7f87bc146103cb57806323b872dd146103e9578063313ce5671461046f5780633af32abf146104935780634000aea0146104ef57610141565b806265318b1461014657806306fdde031461019e578063095ea7b314610221578063153a1f3e1461028757806318160ddd14610355575b600080fd5b6101886004803603602081101561015c57600080fd5b81019080803573ffffffffffffffffffffffffffffffffffffffff1690602001909291905050506108fd565b6040518082815260200191505060405180910390f35b6101a66109ac565b6040518080602001828103825283818151815260200191508051906020019080838360005b838110156101e65780820151818401526020810190506101cb565b50505050905090810190601f1680156102135780820380516001836020036101000a031916815260200191505b509250505060405180910390f35b61026d6004803603604081101561023757600080fd5b81019080803573ffffffffffffffffffffffffffffffffffffffff169060200190929190803590602001909291905050506109e5565b604051808215151515815260200191505060405180910390f35b6103536004803603604081101561029d57600080fd5b81019080803590602001906401000000008111156102ba57600080fd5b8201836020820111156102cc57600080fd5b803590602001918460208302840111640100000000831117156102ee57600080fd5b90919293919293908035906020019064010000000081111561030f57600080fd5b82018360208201111561032157600080fd5b8035906020019184602083028401116401000000008311171561034357600080fd5b9091929391929390505050610add565b005b61035d610b5a565b6040518082815260200191505060405180910390f35b6103b56004803603602081101561038957600080fd5b81019080803573ffffffffffffffffffffffffffffffffffffffff169060200190929190505050610b66565b6040518082815260200191505060405180910390f35b6103d3610bb4565b6040518082815260200191505060405180910390f35b610455600480360360608110156103ff57600080fd5b81019080803573ffffffffffffffffffffffffffffffffffffffff169060200190929190803573ffffffffffffffffffffffffffffffffffffffff16906020019092919080359060200190929190505050610bc0565b604051808215151515815260200191505060405180910390f35b610477610cf8565b604051808260ff1660ff16815260200191505060405180910390f35b6104d5600480360360208110156104a957600080fd5b81019080803573ffffffffffffffffffffffffffffffffffffffff169060200190929190505050610cfd565b604051808215151515815260200191505060405180910390f35b6105906004803603606081101561050557600080fd5b81019080803573ffffffffffffffffffffffffffffffffffffffff169060200190929190803590602001909291908035906020019064010000000081111561054c57600080fd5b82018360208201111561055e57600080fd5b8035906020019184600183028401116401000000008311171561058057600080fd5b9091929391929390505050610d58565b604051808215151515815260200191505060405180910390f35b6105d6600480360360208110156105c057600080fd5b8101908080359060200190929190505050610e8b565b005b61061a600480360360208110156105ee57600080fd5b81019080803573ffffffffffffffffffffffffffffffffffffffff169060200190929190505050611057565b604051808681526020018581526020018481526020018381526020018281526020019550505050505060405180910390f35b6106786004803603602081101561066257600080fd5b810190808035906020019092919050505061109d565b005b6106bc6004803603602081101561069057600080fd5b81019080803573ffffffffffffffffffffffffffffffffffffffff1690602001909291905050506110a9565b6040518082815260200191505060405180910390f35b6106fe600480360360208110156106e857600080fd5b8101908080359060200190929190505050611102565b005b61070861120f565b6040518080602001828103825283818151815260200191508051906020019080838360005b8381101561074857808201518184015260208101905061072d565b50505050905090810190601f1680156107755780820380516001836020036101000a031916815260200191505b509250505060405180910390f35b6107cf6004803603604081101561079957600080fd5b81019080803573ffffffffffffffffffffffffffffffffffffffff16906020019092919080359060200190929190505050611248565b604051808215151515815260200191505060405180910390f35b610815600480360360208110156107ff57600080fd5b8101908080359060200190929190505050611260565b005b6108796004803603604081101561082d57600080fd5b81019080803573ffffffffffffffffffffffffffffffffffffffff169060200190929190803573ffffffffffffffffffffffffffffffffffffffff16906020019092919050505061126c565b6040518082815260200191505060405180910390f35b6108976112f8565b6040518082815260200191505060405180910390f35b6108fb600480360360408110156108c357600080fd5b81019080803573ffffffffffffffffffffffffffffffffffffffff16906020019092919080351515906020019092919050505061147f565b005b600068010000000000000000600060020160008473ffffffffffffffffffffffffffffffffffffffff1673ffffffffffffffffffffffffffffffffffffffff16815260200190815260200160002060040154600060020160008573ffffffffffffffffffffffffffffffffffffffff1673ffffffffffffffffffffffffffffffffffffffff168152602001908152602001600020600201546000600301540203816109a457fe5b049050919050565b6040518060400160405280600781526020017f486172766573740000000000000000000000000000000000000000000000000081525081565b600081600060020160003373ffffffffffffffffffffffffffffffffffffffff1673ffffffffffffffffffffffffffffffffffffffff16815260200190815260200160002060030160008573ffffffffffffffffffffffffffffffffffffffff1673ffffffffffffffffffffffffffffffffffffffff168152602001908152602001600020819055508273ffffffffffffffffffffffffffffffffffffffff163373ffffffffffffffffffffffffffffffffffffffff167f8c5be1e5ebec7d5bd14f71427d1e84f3dd0314c0f7b2291e5b200ac8c7c3b925846040518082815260200191505060405180910390a36001905092915050565b818190508484905014610aef57600080fd5b60008090505b84849050811015610b5357610b4533868684818110610b1057fe5b9050602002013573ffffffffffffffffffffffffffffffffffffffff16858585818110610b3957fe5b9050602002013561158f565b508080600101915050610af5565b5050505050565b60008060000154905090565b60008060020160008373ffffffffffffffffffffffffffffffffffffffff1673ffffffffffffffffffffffffffffffffffffffff168152602001908152602001600020600201549050919050565b60008060010154905090565b600081600060020160008673ffffffffffffffffffffffffffffffffffffffff1673ffffffffffffffffffffffffffffffffffffffff16815260200190815260200160002060030160003373ffffffffffffffffffffffffffffffffffffffff1673ffffffffffffffffffffffffffffffffffffffff168152602001908152602001600020541015610c5157600080fd5b81600060020160008673ffffffffffffffffffffffffffffffffffffffff1673ffffffffffffffffffffffffffffffffffffffff16815260200190815260200160002060030160003373ffffffffffffffffffffffffffffffffffffffff1673ffffffffffffffffffffffffffffffffffffffff16815260200190815260200160002060008282540392505081905550610cec84848461158f565b50600190509392505050565b601281565b60008060020160008373ffffffffffffffffffffffffffffffffffffffff1673ffffffffffffffffffffffffffffffffffffffff16815260200190815260200160002060000160009054906101000a900460ff169050919050565b600080610d6633878761158f565b90506000863b905060008163ffffffff161115610e7d578673ffffffffffffffffffffffffffffffffffffffff16636be32e73338488886040518563ffffffff1660e01b8152600401808573ffffffffffffffffffffffffffffffffffffffff1673ffffffffffffffffffffffffffffffffffffffff168152602001848152602001806020018281038252848482818152602001925080828437600081840152601f19601f82011690508083019250505095505050505050602060405180830381600087803b158015610e3857600080fd5b505af1158015610e4c573d6000803e3d6000fd5b505050506040513d6020811015610e6257600080fd5b8101908080519060200190929190505050610e7c57600080fd5b5b600192505050949350505050565b80610e95336110a9565b1015610ea057600080fd5b80600060020160003373ffffffffffffffffffffffffffffffffffffffff1673ffffffffffffffffffffffffffffffffffffffff168152602001908152602001600020600101600082825403925050819055506000819050600080600101541115610fa45760028181610f0f57fe5b04905060006001015468010000000000000000820281610f2b57fe5b046000600301600082825401925050819055503073ffffffffffffffffffffffffffffffffffffffff163373ffffffffffffffffffffffffffffffffffffffff167fddf252ad1be2c89b69c2b068fc378daa952ba7f163c4a11628f55a4df523b3ef836040518082815260200191505060405180910390a35b806000800160008282540392505081905550600073ffffffffffffffffffffffffffffffffffffffff163373ffffffffffffffffffffffffffffffffffffffff167fddf252ad1be2c89b69c2b068fc378daa952ba7f163c4a11628f55a4df523b3ef836040518082815260200191505060405180910390a37fb90306ad06b2a6ff86ddc9327db583062895ef6540e62dc50add009db5b356eb816040518082815260200191505060405180910390a15050565b6000806000806000611067610b5a565b61106f610bb4565b611078886110a9565b61108189610b66565b61108a8a6108fd565b9450945094509450945091939590929450565b6110a68161187a565b50565b60006110b482610b66565b600060020160008473ffffffffffffffffffffffffffffffffffffffff1673ffffffffffffffffffffffffffffffffffffffff16815260200190815260200160002060010154039050919050565b600080600101541161111357600080fd5b8061111d336110a9565b101561112857600080fd5b80600060020160003373ffffffffffffffffffffffffffffffffffffffff1673ffffffffffffffffffffffffffffffffffffffff168152602001908152602001600020600101600082825403925050819055506000600101546801000000000000000082028161119457fe5b046000600301600082825401925050819055503073ffffffffffffffffffffffffffffffffffffffff163373ffffffffffffffffffffffffffffffffffffffff167fddf252ad1be2c89b69c2b068fc378daa952ba7f163c4a11628f55a4df523b3ef836040518082815260200191505060405180910390a350565b6040518060400160405280600381526020017f485654000000000000000000000000000000000000000000000000000000000081525081565b600061125533848461158f565b506001905092915050565b61126981611a99565b50565b60008060020160008473ffffffffffffffffffffffffffffffffffffffff1673ffffffffffffffffffffffffffffffffffffffff16815260200190815260200160002060030160008373ffffffffffffffffffffffffffffffffffffffff1673ffffffffffffffffffffffffffffffffffffffff16815260200190815260200160002054905092915050565b600080611304336108fd565b9050600081101561131457600080fd5b680100000000000000008102600060020160003373ffffffffffffffffffffffffffffffffffffffff1673ffffffffffffffffffffffffffffffffffffffff1681526020019081526020016000206004016000828254019250508190555080600060020160003373ffffffffffffffffffffffffffffffffffffffff1673ffffffffffffffffffffffffffffffffffffffff168152602001908152602001600020600101600082825401925050819055503373ffffffffffffffffffffffffffffffffffffffff163073ffffffffffffffffffffffffffffffffffffffff167fddf252ad1be2c89b69c2b068fc378daa952ba7f163c4a11628f55a4df523b3ef836040518082815260200191505060405180910390a33373ffffffffffffffffffffffffffffffffffffffff167f4256a058fa2b123d727576d3d31e3a272db98ee5fe264e229610ce43dc849999826040518082815260200191505060405180910390a28091505090565b600060040160009054906101000a900473ffffffffffffffffffffffffffffffffffffffff1673ffffffffffffffffffffffffffffffffffffffff163373ffffffffffffffffffffffffffffffffffffffff16146114dc57600080fd5b80600060020160008473ffffffffffffffffffffffffffffffffffffffff1673ffffffffffffffffffffffffffffffffffffffff16815260200190815260200160002060000160006101000a81548160ff0219169083151502179055508173ffffffffffffffffffffffffffffffffffffffff167f5a25e09a5dba33161281055e015f1279b6b10204d8f90dd56a8ce2b82322d43d82604051808215151515815260200191505060405180910390a25050565b60008161159b856110a9565b10156115a657600080fd5b81600060020160008673ffffffffffffffffffffffffffffffffffffffff1673ffffffffffffffffffffffffffffffffffffffff1681526020019081526020016000206001016000828254039250508190555060006064600f84028161160857fe5b049050606460016b019d971e4fe8401e74000000028161162457fe5b048161162e610b5a565b031080611640575061163f85610cfd565b5b1561164a57600090505b6000818403905080600060020160008773ffffffffffffffffffffffffffffffffffffffff1673ffffffffffffffffffffffffffffffffffffffff168152602001908152602001600020600101600082825401925050819055508473ffffffffffffffffffffffffffffffffffffffff168673ffffffffffffffffffffffffffffffffffffffff167fddf252ad1be2c89b69c2b068fc378daa952ba7f163c4a11628f55a4df523b3ef836040518082815260200191505060405180910390a3600082111561186e576000806001015411156117be576002828161172957fe5b0491506000600101546801000000000000000083028161174557fe5b046000600301600082825401925050819055503073ffffffffffffffffffffffffffffffffffffffff168673ffffffffffffffffffffffffffffffffffffffff167fddf252ad1be2c89b69c2b068fc378daa952ba7f163c4a11628f55a4df523b3ef846040518082815260200191505060405180910390a35b816000800160008282540392505081905550600073ffffffffffffffffffffffffffffffffffffffff168673ffffffffffffffffffffffffffffffffffffffff167fddf252ad1be2c89b69c2b068fc378daa952ba7f163c4a11628f55a4df523b3ef846040518082815260200191505060405180910390a37fb90306ad06b2a6ff86ddc9327db583062895ef6540e62dc50add009db5b356eb826040518082815260200191505060405180910390a15b80925050509392505050565b8061188433610b66565b101561188f57600080fd5b60006064600f83028161189e57fe5b049050600060010154680100000000000000008202816118ba57fe5b046000600301600082825401925050819055508160006001016000828254039250508190555080600060020160003373ffffffffffffffffffffffffffffffffffffffff1673ffffffffffffffffffffffffffffffffffffffff1681526020019081526020016000206001016000828254039250508190555081600060020160003373ffffffffffffffffffffffffffffffffffffffff1673ffffffffffffffffffffffffffffffffffffffff168152602001908152602001600020600201600082825403925050819055506000600301548202600060020160003373ffffffffffffffffffffffffffffffffffffffff1673ffffffffffffffffffffffffffffffffffffffff168152602001908152602001600020600401600082825403925050819055503373ffffffffffffffffffffffffffffffffffffffff163073ffffffffffffffffffffffffffffffffffffffff167fddf252ad1be2c89b69c2b068fc378daa952ba7f163c4a11628f55a4df523b3ef8385036040518082815260200191505060405180910390a33373ffffffffffffffffffffffffffffffffffffffff167f2cfce4af01bcb9d6cf6c84ee1b7c491100b8695368264146a94d71e10a63083f836040518082815260200191505060405180910390a25050565b80611aa3336110a9565b1015611aae57600080fd5b68056bc75e2d6310000081611ac233610b66565b011015611ace57600080fd5b8060006001016000828254019250508190555080600060020160003373ffffffffffffffffffffffffffffffffffffffff1673ffffffffffffffffffffffffffffffffffffffff168152602001908152602001600020600201600082825401925050819055506000600301548102600060020160003373ffffffffffffffffffffffffffffffffffffffff1673ffffffffffffffffffffffffffffffffffffffff168152602001908152602001600020600401600082825401925050819055503073ffffffffffffffffffffffffffffffffffffffff163373ffffffffffffffffffffffffffffffffffffffff167fddf252ad1be2c89b69c2b068fc378daa952ba7f163c4a11628f55a4df523b3ef836040518082815260200191505060405180910390a33373ffffffffffffffffffffffffffffffffffffffff167ff97a274face0b5517365ad396b1fdba6f68bd3135ef603e44272adba3af5a1e0826040518082815260200191505060405180910390a25056fea265627a7a7231582029e2f8b097b79746521d2ff4a276fbb46821c23c551b53c93c1eacf0669791b464736f6c63430005100032",
  "source": "pragma solidity ^0.5.13;\r\n\r\ninterface Callable {\r\n\tfunction tokenCallback(address _from, uint256 _tokens, bytes calldata _data) external returns (bool);\r\n}\r\n\r\ncontract Work {\r\n\tuint256 constant private FLOAT_SCALAR = 2**64;\r\n\tuint256 constant private INITIAL_SUPPLY = 5e26; // \r\n\tuint256 constant private BURN_RATE = 15; // 10% per tx\r\n\tuint256 constant private SUPPLY_FLOOR = 1; // 1% of 300M = 3M\r\n\tuint256 constant private MIN_FREEZE_AMOUNT = 1e20; // 100 minimum\r\n\r\n\tstring constant public name = \"Harvest\";\r\n\tstring constant public symbol = \"HVT\";\r\n\tuint8 constant public decimals = 18;\r\n\r\n\tstruct User {\r\n\t\tbool whitelisted;\r\n\t\tuint256 balance;\r\n\t\tuint256 frozen;\r\n\t\tmapping(address => uint256) allowance;\r\n\t\tint256 scaledPayout;\r\n\t}\r\n\r\n\tstruct Info {\r\n\t\tuint256 totalSupply;\r\n\t\tuint256 totalFrozen;\r\n\t\tmapping(address => User) users;\r\n\t\tuint256 scaledPayoutPerToken;\r\n\t\taddress admin;\r\n\t}\r\n\tInfo private info;\r\n\r\n\r\n\tevent Transfer(address indexed from, address indexed to, uint256 tokens);\r\n\tevent Approval(address indexed owner, address indexed spender, uint256 tokens);\r\n\tevent Whitelist(address indexed user, bool status);\r\n\tevent Freeze(address indexed owner, uint256 tokens);\r\n\tevent Unfreeze(address indexed owner, uint256 tokens);\r\n\tevent Collect(address indexed owner, uint256 tokens);\r\n\tevent Burn(uint256 tokens);\r\n\r\n\r\n\tconstructor() public {\r\n\t\tinfo.admin = msg.sender;\r\n\t\tinfo.totalSupply = INITIAL_SUPPLY;\r\n\t\tinfo.users[msg.sender].balance = INITIAL_SUPPLY;\r\n\t\temit Transfer(address(0x0), msg.sender, INITIAL_SUPPLY);\r\n\t\twhitelist(msg.sender, true);\r\n\t}\r\n\r\n\tfunction freeze(uint256 _tokens) external {\r\n\t\t_freeze(_tokens);\r\n\t}\r\n\r\n\tfunction unfreeze(uint256 _tokens) external {\r\n\t\t_unfreeze(_tokens);\r\n\t}\r\n\r\n\tfunction collect() external returns (uint256) {\r\n\t\tuint256 _dividends = dividendsOf(msg.sender);\r\n\t\trequire(_dividends >= 0);\r\n\t\tinfo.users[msg.sender].scaledPayout += int256(_dividends * FLOAT_SCALAR);\r\n\t\tinfo.users[msg.sender].balance += _dividends;\r\n\t\temit Transfer(address(this), msg.sender, _dividends);\r\n\t\temit Collect(msg.sender, _dividends);\r\n\t\treturn _dividends;\r\n\t}\r\n\r\n\tfunction burn(uint256 _tokens) external {\r\n\t\trequire(balanceOf(msg.sender) >= _tokens);\r\n\t\tinfo.users[msg.sender].balance -= _tokens;\r\n\t\tuint256 _burnedAmount = _tokens;\r\n\t\tif (info.totalFrozen > 0) {\r\n\t\t\t_burnedAmount /= 2;\r\n\t\t\tinfo.scaledPayoutPerToken += _burnedAmount * FLOAT_SCALAR / info.totalFrozen;\r\n\t\t\temit Transfer(msg.sender, address(this), _burnedAmount);\r\n\t\t}\r\n\t\tinfo.totalSupply -= _burnedAmount;\r\n\t\temit Transfer(msg.sender, address(0x0), _burnedAmount);\r\n\t\temit Burn(_burnedAmount);\r\n\t}\r\n\r\n\tfunction distribute(uint256 _tokens) external {\r\n\t\trequire(info.totalFrozen > 0);\r\n\t\trequire(balanceOf(msg.sender) >= _tokens);\r\n\t\tinfo.users[msg.sender].balance -= _tokens;\r\n\t\tinfo.scaledPayoutPerToken += _tokens * FLOAT_SCALAR / info.totalFrozen;\r\n\t\temit Transfer(msg.sender, address(this), _tokens);\r\n\t}\r\n\r\n\tfunction transfer(address _to, uint256 _tokens) external returns (bool) {\r\n\t\t_transfer(msg.sender, _to, _tokens);\r\n\t\treturn true;\r\n\t}\r\n\r\n\tfunction approve(address _spender, uint256 _tokens) external returns (bool) {\r\n\t\tinfo.users[msg.sender].allowance[_spender] = _tokens;\r\n\t\temit Approval(msg.sender, _spender, _tokens);\r\n\t\treturn true;\r\n\t}\r\n\r\n\tfunction transferFrom(address _from, address _to, uint256 _tokens) external returns (bool) {\r\n\t\trequire(info.users[_from].allowance[msg.sender] >= _tokens);\r\n\t\tinfo.users[_from].allowance[msg.sender] -= _tokens;\r\n\t\t_transfer(_from, _to, _tokens);\r\n\t\treturn true;\r\n\t}\r\n\r\n\tfunction transferAndCall(address _to, uint256 _tokens, bytes calldata _data) external returns (bool) {\r\n\t\tuint256 _transferred = _transfer(msg.sender, _to, _tokens);\r\n\t\tuint32 _size;\r\n\t\tassembly {\r\n\t\t\t_size := extcodesize(_to)\r\n\t\t}\r\n\t\tif (_size > 0) {\r\n\t\t\trequire(Callable(_to).tokenCallback(msg.sender, _transferred, _data));\r\n\t\t}\r\n\t\treturn true;\r\n\t}\r\n\r\n\tfunction bulkTransfer(address[] calldata _receivers, uint256[] calldata _amounts) external {\r\n\t\trequire(_receivers.length == _amounts.length);\r\n\t\tfor (uint256 i = 0; i < _receivers.length; i++) {\r\n\t\t\t_transfer(msg.sender, _receivers[i], _amounts[i]);\r\n\t\t}\r\n\t}\r\n\r\n\tfunction whitelist(address _user, bool _status) public {\r\n\t\trequire(msg.sender == info.admin);\r\n\t\tinfo.users[_user].whitelisted = _status;\r\n\t\temit Whitelist(_user, _status);\r\n\t}\r\n\r\n\r\n\tfunction totalSupply() public view returns (uint256) {\r\n\t\treturn info.totalSupply;\r\n\t}\r\n\r\n\tfunction totalFrozen() public view returns (uint256) {\r\n\t\treturn info.totalFrozen;\r\n\t}\r\n\r\n\tfunction balanceOf(address _user) public view returns (uint256) {\r\n\t\treturn info.users[_user].balance - frozenOf(_user);\r\n\t}\r\n\r\n\tfunction frozenOf(address _user) public view returns (uint256) {\r\n\t\treturn info.users[_user].frozen;\r\n\t}\r\n\r\n\tfunction dividendsOf(address _user) public view returns (uint256) {\r\n\t\treturn uint256(int256(info.scaledPayoutPerToken * info.users[_user].frozen) - info.users[_user].scaledPayout) / FLOAT_SCALAR;\r\n\t}\r\n\r\n\tfunction allowance(address _user, address _spender) public view returns (uint256) {\r\n\t\treturn info.users[_user].allowance[_spender];\r\n\t}\r\n\r\n\tfunction isWhitelisted(address _user) public view returns (bool) {\r\n\t\treturn info.users[_user].whitelisted;\r\n\t}\r\n\r\n\tfunction allInfoFor(address _user) public view returns (uint256 totalTokenSupply, uint256 totalTokensFrozen, uint256 userBalance, uint256 userFrozen, uint256 userDividends) {\r\n\t\treturn (totalSupply(), totalFrozen(), balanceOf(_user), frozenOf(_user), dividendsOf(_user));\r\n\t}\r\n\r\n\r\n\tfunction _transfer(address _from, address _to, uint256 _tokens) internal returns (uint256) {\r\n\t\trequire(balanceOf(_from) >= _tokens);\r\n\t\tinfo.users[_from].balance -= _tokens;\r\n\t\tuint256 _burnedAmount = _tokens * BURN_RATE / 100;\r\n\t\tif (totalSupply() - _burnedAmount < INITIAL_SUPPLY * SUPPLY_FLOOR / 100 || isWhitelisted(_from)) {\r\n\t\t\t// will not burn any more if the current total supply is less than 1% of the initial supply\r\n\t\t\t_burnedAmount = 0;\r\n\t\t}\r\n\t\tuint256 _transferred = _tokens - _burnedAmount;\r\n\t\tinfo.users[_to].balance += _transferred;\r\n\t\temit Transfer(_from, _to, _transferred);\r\n\t\tif (_burnedAmount > 0) {\r\n\t\t\tif (info.totalFrozen > 0) {\r\n\t\t\t\t_burnedAmount /= 2;\r\n\t\t\t\tinfo.scaledPayoutPerToken += _burnedAmount * FLOAT_SCALAR / info.totalFrozen;\r\n\t\t\t\temit Transfer(_from, address(this), _burnedAmount);\r\n\t\t\t}\r\n\t\t\tinfo.totalSupply -= _burnedAmount;\r\n\t\t\temit Transfer(_from, address(0x0), _burnedAmount);\r\n\t\t\temit Burn(_burnedAmount);\r\n\t\t}\r\n\t\treturn _transferred;\r\n\t}\r\n\r\n\tfunction _freeze(uint256 _amount) internal {\r\n\t\trequire(balanceOf(msg.sender) >= _amount);\r\n\t\trequire(frozenOf(msg.sender) + _amount >= MIN_FREEZE_AMOUNT);\r\n\t\tinfo.totalFrozen += _amount;\r\n\t\tinfo.users[msg.sender].frozen += _amount;\r\n\t\tinfo.users[msg.sender].scaledPayout += int256(_amount * info.scaledPayoutPerToken);\r\n\t\temit Transfer(msg.sender, address(this), _amount);\r\n\t\temit Freeze(msg.sender, _amount);\r\n\t}\r\n\r\n\tfunction _unfreeze(uint256 _amount) internal {\r\n\t\trequire(frozenOf(msg.sender) >= _amount);\r\n\t\tuint256 _burnedAmount = _amount * BURN_RATE / 100;\r\n\t\tinfo.scaledPayoutPerToken += _burnedAmount * FLOAT_SCALAR / info.totalFrozen;\r\n\t\tinfo.totalFrozen -= _amount;\r\n\t\tinfo.users[msg.sender].balance -= _burnedAmount;\r\n\t\tinfo.users[msg.sender].frozen -= _amount;\r\n\t\tinfo.users[msg.sender].scaledPayout -= int256(_amount * info.scaledPayoutPerToken);\r\n\t\temit Transfer(address(this), msg.sender, _amount - _burnedAmount);\r\n\t\temit Unfreeze(msg.sender, _amount);\r\n\t}\r\n}",
  "sourcePath": "C:\\Projects\\Blockchain\\H3X\\contracts\\H3X.sol",
  "compiler": {
    "name": "solc",
    "version": "0.5.16+commit.9c3226ce.Emscripten.clang"
  },
  "schemaVersion": "3.2.0",
  "updatedAt": "2020-08-03T13:21:08.632Z",
  "networkType": "ethereum",
  "devdoc": {
    "methods": {}
  },
  "userdoc": {
    "methods": {}
  }
}